:020000040800F2
:1000000000500020FD2E0008992E00089B2E0008AD
:100010009D2E00089F2E0008A12E00080000000061
:10002000000000000000000000000000A32E0008F7
:10003000A52E000800000000A72E0008A92E000829
:10004000452F0008452F0008452F0008452F0008C0
:10005000452F0008452F0008452F0008452F0008B0
:10006000452F0008452F0008AD2E0008BD2E0008C2
:10007000452F0008452F0008452F0008452F000890
:10008000452F0008452F0008C92E0008452F0008FD
:10009000D52E0008452F0008452F0008452F0008E1
:1000A000452F0008452F0008452F0008452F000860
:1000B000E12E0008452F0008452F0008452F0008B5
:1000C000452F0008452F0008452F0008452F000840
:1000D000452F0008ED2E0008452F0008452F000889
:1000E000452F0008452F0008452F0008000000009C
:1000F0000000000000000000000000000000000000
:0C01000000000000000000005FF808F1A3
:1001100010B5054C237833B9044B13B10448AFF341
:1001200000800123237010BDA0010020000000000A
:10013000947C000808B5034B1BB103490348AFF397
:10014000008008BD00000000A4010020947C00088D
:10015000034613F8012B002AFBD1181A0138704707
:1001600081F0004102E000BF83F0004330B54FEA68
:1001700041044FEA430594EA050F08BF90EA020FD5
:100180001FBF54EA000C55EA020C7FEA645C7FEA68
:10019000655C00F0E2804FEA5454D4EB5555B8BF8B
:1001A0006D420CDD2C4480EA020281EA030382EAFC
:1001B000000083EA010180EA020281EA0303362D8E
:1001C00088BF30BD11F0004F4FEA01314FF4801C61
:1001D0004CEA113102D0404261EB410113F0004F73
:1001E0004FEA03334CEA133302D0524263EB43032A
:1001F00094EA050F00F0A780A4F10104D5F1200EC8
:100200000DDB02FA0EFC22FA05F2801841F1000122
:1002100003FA0EF2801843FA05F359410EE0A5F1F6
:1002200020050EF1200E012A03FA0EFC28BF4CF027
:10023000020C43FA05F3C01851EBE37101F00045DD
:1002400007D54FF0000EDCF1000C7EEB00006EEBEA
:100250000101B1F5801F1BD3B1F5001F0CD3490874
:100260005FEA30004FEA3C0C04F101044FEA4452CB
:1002700012F5800F80F09A80BCF1004F08BF5FEA52
:10028000500C50F1000041EB045141EA050130BD32
:100290005FEA4C0C404141EB0101013C28BFB1F544
:1002A000801FE9D291F0000F04BF01460020B1FA8F
:1002B00081F308BF2033A3F10B03B3F120020CDA62
:1002C0000C3208DD02F1140CC2F10C0201FA0CF040
:1002D00021FA02F10CE002F11402D8BFC2F1200CA5
:1002E00001FA02F120FA0CFCDCBF41EA0C0190405B
:1002F000E41AA2BF01EB0451294330BD6FEA0404A4
:100300001F3C1CDA0C340EDC04F11404C4F120028E
:1003100020FA04F001FA02F340EA030021FA04F3A0
:1003200045EA030130BDC4F10C04C4F1200220FAF7
:1003300002F001FA04F340EA0300294630BD21FA35
:1003400004F0294630BD94F0000F83F4801306BFFB
:1003500081F480110134013D4EE77FEA645C18BFEF
:100360007FEA655C29D094EA050F08BF90EA020F86
:1003700005D054EA000C04BF1946104630BD91EA7E
:10038000030F1EBF0021002030BD5FEA545C05D181
:100390004000494128BF41F0004130BD14F58004C0
:1003A0003CBF01F5801130BD01F0004545F0FE4134
:1003B00041F470014FF0000030BD7FEA645C1ABF69
:1003C000194610467FEA655C1CBF0B46024650EAA0
:1003D000013406BF52EA033591EA030F41F40021CC
:1003E00030BD00BF90F0000F04BF0021704730B552
:1003F0004FF4806404F132044FF000054FF0000127
:1004000050E700BF90F0000F04BF0021704730B5E7
:100410004FF4806404F1320410F0004548BF4042BC
:100420004FF000013EE700BF42004FEAE2014FEA11
:1004300031014FEA02701FBF12F07F4393F07F4FEC
:1004400081F06051704732F07F4208BF704793F0EF
:100450007F4F04BF41F40021704730B54FF4607402
:1004600001F0004521F000411CE700BF50EA010205
:1004700008BF704730B54FF000050AE050EA0102AE
:1004800008BF704730B511F0004502D5404261EB1E
:1004900041014FF4806404F132045FEA915C3FF45F
:1004A000D8AE4FF003025FEADC0C18BF03325FEAFC
:1004B000DC0C18BF033202EBDC02C2F1200300FAAD
:1004C00003FC20FA02F001FA03FE40EA0E0021FAD2
:1004D00002F11444BDE600BF70B54FF0FF0C4CF4C0
:1004E000E06C1CEA11541DBF1CEA135594EA0C0F72
:1004F00095EA0C0F00F0DEF82C4481EA030621EAAD
:100500004C5123EA4C5350EA013518BF52EA0335E7
:1005100041F4801143F4801338D0A0FB02CE4FF099
:100520000005E1FB02E506F00042E0FB03E54FF0C9
:100530000006E1FB03569CF0000F18BF4EF0010EC1
:10054000A4F1FF04B6F5007F64F5407404D25FEABD
:100550004E0E6D4146EB060642EAC62141EA555170
:100560004FEAC52040EA5E504FEACE2EB4F1FD0CB2
:1005700088BFBCF5E06F1ED8BEF1004F08BF5FEA30
:10058000500E50F1000041EB045170BD06F00046E2
:1005900046EA010140EA020081EA0301B4EB5C048F
:1005A000C2BFD4EB0C0541EA045170BD41F4801187
:1005B0004FF0000E013C00F3AB8014F1360FDEBFAC
:1005C000002001F0004170BDC4F10004203C35DA88
:1005D0000C341BDC04F11404C4F1200500FA05F30B
:1005E00020FA04F001FA05F240EA020001F00042AC
:1005F00021F0004110EBD37021FA04F642EB060122
:100600005EEA430E08BF20EAD37070BDC4F10C044B
:10061000C4F1200500FA04F320FA05F001FA04F20F
:1006200040EA020001F0004110EBD37041F10001FB
:100630005EEA430E08BF20EAD37070BDC4F1200506
:1006400000FA05F24EEA020E20FA04F301FA05F26E
:1006500043EA020321FA04F001F0004121FA04F216
:1006600020EA020000EBD3705EEA430E08BF20EAE6
:10067000D37070BD94F0000F0FD101F00046400020
:1006800041EB010111F4801F08BF013CF7D041EAA2
:10069000060195F0000F18BF704703F000465200A6
:1006A00043EB030313F4801F08BF013DF7D043EA77
:1006B0000603704794EA0C0F0CEA135518BF95EA2D
:1006C0000C0F0CD050EA410618BF52EA4306D1D1B4
:1006D00081EA030101F000414FF0000070BD50EAD3
:1006E000410606BF1046194652EA430619D094EA5D
:1006F0000C0F02D150EA013613D195EA0C0F05D147
:1007000052EA03361CBF104619460AD181EA03019A
:1007100001F0004141F0FE4141F470014FF0000052
:1007200070BD41F0FE4141F4780170BD70B54FF0ED
:10073000FF0C4CF4E06C1CEA11541DBF1CEA13556D
:1007400094EA0C0F95EA0C0F00F0A7F8A4EB05044F
:1007500081EA030E52EA03354FEA013100F0888046
:100760004FEA03334FF0805545EA131343EA12630F
:100770004FEA022245EA111545EA10654FEA0026C4
:100780000EF000419D4208BF964244F1FD0404F57D
:10079000407402D25B084FEA3202B61A65EB0305D9
:1007A0005B084FEA32024FF480104FF4002CB6EB96
:1007B000020E75EB030E22BFB61A754640EA0C0016
:1007C0005B084FEA3202B6EB020E75EB030E22BF56
:1007D000B61A754640EA5C005B084FEA3202B6EB97
:1007E000020E75EB030E22BFB61A754640EA9C0056
:1007F0005B084FEA3202B6EB020E75EB030E22BF26
:10080000B61A754640EADC0055EA060E18D04FEAE3
:10081000051545EA16754FEA06164FEAC30343EA83
:1008200052734FEAC2025FEA1C1CC0D111F4801F50
:100830000BD141EA00014FF000004FF0004CB6E749
:1008400011F4801F04BF01430020B4F1FD0C88BFE8
:10085000BCF5E06F3FF6AFAEB5EB030C04BFB6EBF3
:10086000020C5FEA500C50F1000041EB045170BDE6
:100870000EF0004E4EEA113114EB5C04C2BFD4EB13
:100880000C0541EA045170BD41F480114FF0000E97
:10089000013C90E645EA060E8DE60CEA135594EA13
:1008A0000C0F08BF95EA0C0F3FF43BAF94EA0C0F16
:1008B0000AD150EA01347FF434AF95EA0C0F7FF48B
:1008C00025AF104619462CE795EA0C0F06D152EADF
:1008D00003353FF4FDAE1046194622E750EA4106C3
:1008E00018BF52EA43067FF4C5AE50EA41047FF4D4
:1008F0000DAF52EA43057FF4EBAE12E74FEA410237
:1009000012F5001215D211D56FF47873B3EB625261
:1009100012D94FEAC12343F0004343EA505311F088
:10092000004F23FA02F018BF404270474FF000001A
:10093000704750EA013005D111F0004008BF6FF058
:10094000004070474FF00000704700BF00220A4986
:1009500030B50B88094D013810F8014F14B902B1B8
:100960000B8030BD5A1C92B2B2F5807FEC5414BF9C
:10097000134600230122EFE7FC030020E8020020D9
:10098000074A10B51188074C4B1C9BB2B3F5807F0A
:10099000138008BF0023605408BF138010BD00BF40
:1009A000FC030020E802002038B500240D4B0D4662
:1009B0001C700D4B01463F22184607F02BF90B4BDC
:1009C0001F2280F83F402946184607F023F93222BB
:1009D000074BC4771A600D22064B1A70064B1C7029
:1009E00038BD00BFC5010020A8020020F201002090
:1009F000EC030020C4010020F4030020174B70B565
:100A00005B6806460D46144623B347F2305314493B
:100A10001448002A08BF1C4607F034F9124B0F2275
:100A20001846314607F0F6F800221049C2730A2230
:100A3000284607F0A3F80A2220460D4907F09EF841
:100A40000C4B187810F0020003D0092206200A4B44
:100A50001A7070BD4FF0FF30FBE700BFC8010020E7
:100A6000AC7C00080000002092020020A2020020BE
:100A7000EC010020C5010020C4010020054B1878BE
:100A800010F0020004D004480378002B08BF0020B7
:100A9000704700BFC5010020DC010020084B10B5E5
:100AA0009B685BB1074A084C11884B1C9BB2802B9A
:100AB000138008BF0023605408BF138010BD00BF1F
:100AC000C8010020FA030020120200202DE9FF4790
:100AD0009A46334B81465B680E461746002B59D029
:100AE000DFF8C08098F80040630656D514F008047B
:100AF00049D10A2201A9384607F040F801A8FFF7BA
:100B000027FB0138C0B2032839D82748FFF71EFF5A
:100B100001A8FFF71BFF2548FFF718FF22462449CD
:100B200024480B88A5B2BD4216D302B10B8098F8B9
:100B30000030214C23F00C0343F00C0388F8003004
:100B400023683BB11D489847236801A8984723684C
:100B50001B489847092013E05D1CADB2B5F5807FB6
:100B600008BF0025721C19F8066092B2C654013401
:100B7000524514BF164600262B460122D2E70B2011
:100B800004B0BDE8F0870C4B1B680BB10D489847CB
:100B90000820F5E74FF0FF30F2E70520F0E700BF4F
:100BA000C8010020C5010020F87D0008B07C0008C5
:100BB000FC030020E8020020BC010020B37C0008F8
:100BC0002E7D0008C67C000803460F4A30B500F1B0
:100BD0001005144618685968083303C4AB4222460E
:100BE000F7D118680023094A20601370084A13706F
:100BF000084A1380084A1380084A1380084A138061
:100C0000084A137030BD00BFC8010020C401002095
:100C1000C6010020F8030020FC030020F60300209A
:100C2000FA030020C5010020094A13680BB1013BFB
:100C30001360084A136823B1013B13600BB9064ADD
:100C40001370064A13680BB1013B1360704700BF75
:100C5000EC030020E8030020C6010020F003002080
:100C60002DE9F84FAB4BAC4EB3F800B033880025FC
:100C70005B4506D0A94F3B780D3B022B20D8A6F848
:100C800000B0A74EA74C3368002B40F04582642388
:100C9000A24D33602B780F2B00F23E82DFE813F079
:100CA000690351026A0270027A028402EB02F302C3
:100CB0000403130322035F0364031C0228023702A8
:100CC0000223994A994C136032889345D9D0984BA6
:100CD00021789B5C0C2900F2FA81DFE811F00D000D
:100CE0005700C200F801F80179018E019601A301B5
:100CF000F801BE01C201D8010022042196468D48A8
:100D0000DFF83482DFF83492027088F800105FFA5E
:100D100082FC59F82C10A1B9BEF1000F01D080F867
:100D200000C00021804A7F481160027812F0010F54
:100D300020D03E2B1ED1824B61F30002027019605D
:100D400018E091F804A001329A451CD1BEF1000FC1
:100D500001D080F800C00B784A78303B313A03EB81
:100D6000830302EB4303774A138001232370052397
:100D700088F80030338801339BB2802B338004BF66
:100D800000233380A0E74FF0010EC0E7DFF8A4C1D5
:100D90006A489CF8001050F821106748007811F854
:100DA00000E09E4514D1DFF89CC1BCF80020013A58
:100DB00092B2ACF800200AB10D2B4AD18B78CA78D8
:100DC000303B03EB8303303A02EB43032370D1E75C
:100DD00000218946C0F57F4A8CF800100AF1D30A39
:100DE000DFF858C15FFA81F85CF828C0BCF1000F49
:100DF00009D1B9F1000F00F03C81524B1D804D4BE1
:100E000083F8008035E19CF800E09CF80150AEF1D9
:100E1000300E0EEB8E0E554405EB4E05ADB27F2D18
:100E20001BD81CF800E09E4517D1464B1D80B9F138
:100E3000000F02D03F4B83F8008055B99CF8023078
:100E40009CF80320303B03EB8303303A02EB43036F
:100E50002370394B013018708CE74FF001090131D4
:100E6000BEE70A2B86D10022324B22701B78023B50
:100E70000D2B3FF67FAF01A151F823F0B50E00080E
:100E8000CF0E0008E90E0008750D0008550F000888
:100E9000550F0008770F0008830F00089B0F00080C
:100EA000770F0008750D0008BB0F0008750D0008CE
:100EB000C50F00083B78022B7FF45CAF0022184B73
:100EC0001A60184A137843F02003137052E7154A4A
:100ED000137819077FF54EAF23F0480313701A4BB0
:100EE0001A881A4B1A8045E70D4B1A603B78062B7F
:100EF0000C4B02BF1A7842F020021A701A7842F0A6
:100F000002021A70124B1B68002B3FF433AF032010
:100F100098472FE7FA030020F6030020C4010020C1
:100F2000EC030020C5010020E8030020C6010020DA
:100F3000120200200004002001040020287F000885
:100F4000F0030020FE030020FC030020F803002033
:100F5000C0010020974A137823F042031370964B88
:100F60001B680BB1002098473B78062B3FF402AF7B
:100F70000F233B70FEE68F4B1A786FF386121A70C0
:100F8000F8E68C4B1A786FF3C3021A708A4B1B6811
:100F9000002B3FF4EFAE0A20BAE7884B1A60854A6F
:100FA000137823F0600343F060031370824B1B68D7
:100FB000002B3FF4DFAE0720AAE77E4A137823F028
:100FC000420382E77B4A137823F042031370CFE792
:100FD0007B492C2B096807D10623237000293FF495
:100FE000C9AE78488847C5E60023013A23703280AD
:100FF00000293FF4BFAE7448F4E7222B7FF4BAAE69
:10100000072323700022714B6CE7222B03D06F491A
:101010000A88102A01D10823D8E6501C08806C49A0
:101020008B54A7E60A2B7FF4A5AE0023674A2370F2
:101030001188674A0F299BBF53545E4913700A7881
:101040009FBF42F020020A705C4A13605A4B1B6833
:10105000002B3FF48FAE04205AE72C2B09D10B2331
:10106000CFE73A2B01D10C23B0E6A3F130010929D7
:1010700004D90023013A237032807BE653490A8861
:1010800002EB820203EB4202303A0A8072E6514AD6
:10109000D168088891680B54D1680B8801339BB2E2
:1010A0000B80128A9A4208BF0023484A0B8013889B
:1010B000013B9BB21380002B7FF45CAE2370404B4E
:1010C0001B68002B3FF456AE4348984752E6002376
:1010D000424A237013604DE63E4B00201B68984740
:1010E000374B1B680BB13E4898470E232B7013E01B
:1010F000384B01201B689847314B1B680BB13948AE
:1011000098470F232B704FF4FA73336004E00123E8
:1011100000222B70344B1A702378DA0740F12B81B0
:10112000324A12685AB962F3000301222370304B2D
:1011300030491A700A2308882F4933600880BDE8B7
:10114000F88F294A13782BB1013BDBB213701BB91E
:101150000D23CBE704231370237828486FF345133E
:101160002370FFF7F3FB164B1B680BB1244898471D
:101170000223BBE72378980640F1A3800323B5E759
:101180002048FFF7E3FB0E4B1B680BB11E48984746
:101190000423ABE71D48FFF7D9FB094B1B680BB1D4
:1011A0001B4898470523A1E72378990732D50723E1
:1011B0009CE700BFC5010020C0010020EC03002017
:1011C000BC010020DE7C0008F37C0008FE03002048
:1011D000DC010020C8010020077D0008E803002092
:1011E0001A7D0008307D0008F4030020F003002081
:1011F000C4010020FC030020F8030020CC7D00087F
:10120000467D00081B7E0008547D0008EA7D00082A
:10121000687D00086D4F3B78002B3FF47DAF6C4834
:10122000FFF794FB2220FFF7ABFB3846FFF78EFB5E
:101230002220FFF7A5FB2C20FFF7A2FB2220FFF7BF
:101240009FFB6448FFF782FB2220FFF799FB0D20EC
:10125000FFF796FB0A20FFF793FB5F4B1B680BB170
:101260005E48984723786FF34513237006232B704D
:1012700040F2DC5349E723789A0622D5072304225B
:101280002B70574B47E70022564B57481A70FFF711
:101290005DFB514B1B680BB15448984723786FF3A3
:1012A00045132370082321E723789B0601D50923E2
:1012B0001CE74B4A1378013BDBB21370002B7FF421
:1012C00076AF012312E74A4B1B78002B3FF424AF83
:1012D0004848FFF73BFB404B1B680BB1464898471B
:1012E0000A2303E74548FFF731FB2220FFF748FBBD
:1012F0004348FFF72BFB2220FFF742FB2C20FFF790
:101300003FFB2220FFF73CFB3948FFF71FFB222061
:10131000FFF736FB2C20FFF733FB3A48FFF716FBAD
:101320002C20FFF72DFB3848FFF710FB2C20FFF790
:1013300027FB3020FFF724FB0D20FFF721FB0A20BD
:10134000FFF71EFB244B1B680BB1304898472378EE
:1013500023F0600323700B232B70C823D5E623787A
:101360009F06AED50C23C1E623789807A9D5590668
:101370009DD50023C9E6264D26492A880988914231
:101380003FF4DDAE244E5F07B05C02D53E2808BFB7
:101390000A20224B5B68984700283FF4D0AE2278A1
:1013A0002B8851070AD5F15C3E2907D1052122F08F
:1013B000050242F001022270194A116001339BB20A
:1013C000B3F5807F08BF00232B80B8E6A802002079
:1013D000117E0008F2010020BC0100207C7D000885
:1013E000F4030020DC010020D17D00088F7D00087F
:1013F00092020020DC7D0008A07D0008047E000829
:1014000000000020A2020020EC010020B67D0008B0
:10141000F8030020FC030020E8020020C80100209F
:10142000F0030020014B1860704700BFC00100208E
:10143000014B1860704700BFBC010020F0B50124CB
:101440004FF47A7587B00DF1160300937522234689
:10145000D021CDE901451C4802F05EFE9DF8163012
:10146000682B2FD100270DF1170623466B22D021C0
:10147000CDE90145144800968DF8177002F0BCFDC7
:1014800007231922D0218DF81730CDE901452346D5
:101490000D48009602F0B0FD23461C22D021CDE974
:1014A0000145094800968DF8177002F0A5FD234606
:1014B0001B22D021CDE90145034800968DF8177015
:1014C00002F09AFD07B0F0BD140C002000000000EF
:1014D00006234FF47A7230B587B0CDE9013204AB00
:1014E0003B220093D02101233D4802F015FEBDF8B8
:1014F00010303C4A5BBA138018B2BDF812303A4A39
:101500005BBA13801DB2BDF81430384A5BBA1CB206
:10151000138080EAE073A3EBE0739BB2B3F5E17F45
:1015200051D90028BCBF00F57F503F308013FEF733
:1015300069FF29A3D3E90023FEF7CEFF00222C4B3D
:10154000FEF7CAFFFFF7DAF92A4B186085EAE57360
:10155000A3EBE5739BB2B3F5E17F36D9281EBCBF80
:1015600000F57F503F308013FEF74CFF1AA3D3E9FC
:101570000023FEF7B1FF00221D4BFEF7ADFFFFF782
:10158000BDF944F620621C4B186084EAE473A3EBB7
:10159000E4739BB293421AD9201EBCBF00F57F5062
:1015A0003F308013FEF72EFF0BA3D3E90023FEF795
:1015B00093FF00220E4BFEF78FFFFFF79FF90F4BB3
:1015C000186007B030BD0020BEE70020D9E740F228
:1015D000D530F4E7AFF300801F85EB51B89E234070
:1015E000140C002002040020040400200604002043
:1015F00000005940080400200C04002010040020C2
:1016000006234FF47A7210B586B0CDE9013204ABEF
:10161000009343220123D021244802F07DFDBDF830
:101620001030234A5BBA19B21380BDF8123021483A
:101630005BBA0380BDF814001F4C40BA1AB2208078
:1016400003B281EAE170A0EBE17080B2B0F5E17F16
:1016500083BF832091FBF0F16420002188BF4143C8
:101660001648016082EAE271A1EBE27189B2B1F53C
:10167000AF7F83BF832192FBF1F26421002288BFF8
:101680004A430F490A6083EAE372A2EBE37292B223
:10169000B2F5AF7F83BF832293FBF2F36422002372
:1016A00088BF5343074A136006B010BD140C0020D6
:1016B0001C0400201E04002020040020140400202C
:1016C000180400202404002070B500240B4B8C4229
:1016D00005DB0B4A137843F00403137070BD1E68DA
:1016E000DA8892B2551CADB2DD80055D0134B55487
:1016F0001D8ADA8892B22A40DA80E8E7780D002065
:10170000940B00200246054B1B68186810F08000FF
:101710001EBF034B01205A60704700BFF80C002029
:10172000003801407047000002460221014802F0E3
:10173000ABB900BF000C01400368B3F1804F15D175
:101740000B4A1378013BDBB2137033B909490B78AC
:1017500043F008030B7028231370074B08221988E5
:10176000064B074803EB011101F0B0BD704700BF05
:10177000930D0020940B0020400D00202804002031
:10178000A00B00200B4B0C491B880C4A180101EBE5
:101790000313095A11805988518099889180D988FA
:1017A000D18019891181598951819989DB89918168
:1017B000D3817047400D00202804002058060020E7
:1017C00010B50D4C0D4AE3889BB2D05CFFF766F96B
:1017D000E3880B4801339BB2E380228AE3889BB203
:1017E0001340E3802168E3880122BDE810409BB2EA
:1017F000194404F06EBD00BF640D00206C0700208A
:10180000F80C00202DE9F04F002201244FF00608CB
:10181000052504264FF0030C4FF0020E90F80690B9
:101820000389994501D1BDE8F08F0779018A062F18
:1018300056D8DFE807F00410171E242E4000076872
:10184000FB5C552B01D10471057303890B400133F7
:1018500019400181E4E70768FF5C4E2F27D180F82B
:1018600004E0F2E70768FF5C452F20D180F804C050
:10187000EBE70768FF5C522F19D10671E5E70768AF
:1018800017F803A0057180F80EA0FB5C023BC37340
:10189000DBE70768FF5C3A2F09D101330B40438136
:1018A000837B80F8048083F036034373CDE7013BEC
:1018B00002710381C9E7877B90F80DA0013FFFB259
:1018C000D0F800B0877327B11BF803308AEA03030E
:1018D000EBE707711BF803305345B6D18474B4E7C6
:1018E0000271B2E730B50A44914200D130BDC388DD
:1018F00004685D1CC58011F8015BE554C388448908
:101900002340C380F0E7C388026810B55C1CC48024
:10191000D154C38842891340C38010BDC38830B5F9
:101920005D1CC58055250468E554C388448923405F
:101930005D1CC5804E250468E554C3884489234056
:101940005D1CC58045250468E554C388448923404F
:101950005D1CC58052250468E554C3884489828093
:10196000234004685D1C0132C580E2544289C3886B
:1019700013405C1CC4803A240268D4544289C38852
:10198000134002685C1CC480D154C3884289134050
:10199000C38030BDC2888188931F5B1A002170B557
:1019A000857A04682B409A4207D1531CC380A15406
:1019B000C38842891340C38070BD5E1CE35C5940FC
:1019C00006EA0503EFE7002370B5DAB28C5C013359
:1019D00004B970BDC4880568661CC6808A5C2A5537
:1019E000C28844892240C280EFE7000038B5002356
:1019F0000268837443890D46D15CA6290CD89F29BF
:101A00000ED9A139052928D8DFE811F03100960058
:101A10000F01680171017601F02907D0F12911D079
:101A200002222846FFF77AFFFF21FBE00222284628
:101A3000FFF774FF0D21FFF766FFFFF7ABFF0323EE
:101A4000AB8038BD0E222846FFF768FFAC49FFF790
:101A5000BAFFBDE83840FFF79DBF1122A0212846FC
:101A6000FFF75CFF1022A749FFF73CFFF1E71922BF
:101A7000A1212846FFF752FFFFF72AFDA24BA34CF6
:101A8000196828462160C9B2FFF73DFF6178FFF76A
:101A90003AFFA178FFF737FFE178FFF734FF9C4B5F
:101AA00019682160C9B2FFF72EFF6178FFF72BFF9D
:101AB000A178FFF728FFE178FFF725FF954B19681C
:101AC0002160C9B2FFF71FFF6178FFF71CFFA17803
:101AD000FFF719FFE178FFF716FFFFF791FD8E4B37
:101AE000284619682160C9B2FFF70DFF6178FFF73A
:101AF0000AFFA178FFF707FFE178FFF704FF874BA4
:101B000019682160C9B2FFF7FEFE6178FFF7FBFE9E
:101B1000A178FFF7F8FEE178FFF7F5FE804B196832
:101B20002160C9B2FFF7EFFE6178FFF7ECFEA17804
:101B3000FFF7E9FEE17875E020222846A221FFF7B1
:101B4000EDFE784B714C19682160C9B2FFF7DBFEDE
:101B50006178FFF7D8FEA178FFF7D5FEE178FFF7AF
:101B6000D2FE714B19682160C9B2FFF7CCFE6178D3
:101B7000FFF7C9FEA178FFF7C6FEE178FFF7C3FEC5
:101B80006A4B19682160C9B2FFF7BDFE6178FFF7A3
:101B9000BAFEA178FFF7B7FEE178FFF7B4FE644B19
:101BA000B3F900102180C9B2FFF7ADFE6178FFF7ED
:101BB000AAFE604B19682160C9B2FFF7A4FE6178E4
:101BC000FFF7A1FEA178FFF79EFEE178FFF79BFEED
:101BD000594B19682160C9B2FFF795FE6178FFF78C
:101BE00092FEA178FFF78FFEE178FFF78CFE534B52
:101BF00019682160C9B2FFF786FE6178FFF783FE9E
:101C0000A178FFF780FEE178FFF77DFE4C4BB3F93A
:101C100000102180C9B2FFF776FE6178FFF773FEEE
:101C2000484B1978FFF76FFE13E71A445178374B8A
:101C3000197091785970D17899701179D9701868A4
:101C4000384908605179197091795970D179997032
:101C5000117AD970186834490860517A1970917AEC
:101C60005970D17A9970117BD97018682F49086022
:101C7000517B1970917B597018882D490880D17B50
:101C80001970117C5970517C9970917CD9701868C9
:101C900028490860D17C1970117D5970517D997067
:101CA000917DD970186824490860D17D1970117E22
:101CB0005970517E9970917ED97018681F490860DB
:101CC000D17E28461970127FA3215A701A881C4BA6
:101CD0001A800222FFF722FE0D21A3E70522A4218C
:101CE0002846FFF71BFE184B084C196818E71A44E2
:101CF0005278144B1A70A4E60522A621F0E700BF23
:101D0000B37F00085806002008040020C80D0020FA
:101D10000C040020100400201404002018040020EB
:101D200024040020080000204C0600204406002067
:101D30001A00002004000020480600204006002071
:101D400018000020600D0020840B0020032808B537
:101D500002D10E490E4810E0042803D0072810D104
:101D60000C49F7E70C490A48FFF72DFEFEF786FEFF
:101D700001460748FFF727FE0849BDE80840FFF77E
:101D800022BE0A2800D008BD0549E3E7747F000899
:101D9000B00D0020937F0008897F00082E7D000889
:101DA000A47F00082DE9F0411F4E204C3378A18814
:101DB00013F0010F09BF25890025ED4343F001030E
:101DC0001B4F08BFEDB201F1060208BF3370AA42F3
:101DD0003B7811DA13BB07312389206889B2184494
:101DE00005F00CFD30B9E38838702381337860F357
:101DF00000033370BDE8F08183B9238920681FFA9E
:101E000085F84146184405F0F9FC38B9238998440F
:101E1000A388A4F8088007335B1B3B70397800293E
:101E2000E8D023892068DAE7940B0020B00D002069
:101E30006C0B002010B5074C4FF480732189E288A9
:101E40002068521AD2B2FEF741FE092804BFE38887
:101E5000238110BDA40D002070B501251C4C1D4A26
:101E60002378127805FA03F39207DBB21AD51A4EDB
:101E70004FF40051326819481A4001F005FE2278EB
:101E8000336805FA02F21A4020211548D2B201F057
:101E9000FBFD23782B44DBB21F2B237001D90023D9
:101EA000237070BD0F4E4FF4005132680B481A403A
:101EB00001F0EAFD2378202105FA03F2336808488F
:101EC0001A40D2B201F0E0FD23780133E3E700BF0E
:101ED000420D0020940B002014000020001001404F
:101EE000000C01401000002010B50D4C204603F0FE
:101EF0004FFC0021204603F059FF0421204603F047
:101F000055FF0821204603F051FF0C21204603F025
:101F10004DFF002223685A639A63DA631A6410BD86
:101F2000B00C0020174A08B51388013B9BB2138000
:101F30003BB915490B7843F010030B704FF4FA735B
:101F40001380124A1378013BDBB2137033B90E4988
:101F50000B7843F040030B70642313700C4A137822
:101F6000013BDBB2137043B907490B7843F08003A0
:101F70000B700A231370FFF76FFFBDE80840FEF7F0
:101F800053BE00BF960D0020940B0020940D00203E
:101F9000920D002008B50222F0210548FFF7BEFC93
:101FA0000D21FFF7B0FCBDE80840FFF7F3BC00BF10
:101FB000A40D002010B5154C80EAE073E26AA3EB93
:101FC000E0739BB253436422B3FBF2F300284FF05B
:101FD00000000F4A1BB21268ABBF5363506390639B
:101FE000936381EAE173E06AA3EBE1739BB243433D
:101FF0006420B3FBF0F300294FF000011BB2ABBF2C
:10200000D163D3631364116410BD00BF00080040A6
:10201000B00C00200E490F480B780F4A13F0010F47
:102020000BD06FF300030B7000211378017061F384
:10203000410308461370FFF7BDBF43F001030B7067
:1020400001230370137843F002031370704700BF3D
:10205000950B0020600D0020940B00200020012330
:10206000F0B5354C8BB02370EC4607460346334A37
:10207000334E1188318032F8025B01338D42DBB27E
:102080003EBF184629460127082B4CF8045FF2D1C1
:102090000FB120703180029B24780093079B621E51
:1020A0000993284BD2B21A70611C274BC9B2197020
:1020B0000AAB03EB840353F8280C0AAB03EB82034F
:1020C00053F8283C214DC31A2B600AAD05EB81055E
:1020D00055F8285C1E4E401B1E4DDFF87CC0286062
:1020E0001E4D55F8244055F8211055F82220611A4C
:1020F00001FB01F71A4DA21A2A603160194D02FB4B
:1021000002F6594342432F60174D91422E60A1EBD6
:1021100002054FEA4505154ACCF8005006D07B432E
:1021200006FB103393FBF5F3E41A14601368104AAE
:102130005B4213600BB0F0BD430D00205806002039
:102140008C0D0020450D0020440D00209C0B00202C
:10215000CC0D0020980B0020700B0020F07F0008B1
:10216000D40D0020D00D0020D80D0020DC0D002063
:10217000840B00203B4A70B51368642B54DD642344
:102180001360394C394B2168394819600568394B5F
:1021900039481B6800681268584305FB0100374D39
:1021A000374E2D68366805FB0200364D73432860B4
:1021B000354D2D6805FB01333449096801FB0233B5
:1021C000334A1360334AB2F90050334AB2F900106F
:1021D000324AB2F90020402A2BDD314BB3F900100E
:1021E000304BB3F90000FFF7E5FE2F4A137859068C
:1021F00036D56FF3861313702C480522A421FFF700
:102200008DFB21682A4C2160C9B2FFF77CFB617805
:10221000FFF779FBA178FFF776FBE178FFF773FB17
:10222000BDE87040FFF7B6BB6433AADA6FF0630312
:10223000A6E7052A04DC1B4BB3F90010184BD0E7C6
:102240000A2293FBF2F390FBF2F0C91A09B2284478
:1022500000B26429A8BF64216428A8BF6420C2E733
:1022600070BD00BF8C0B0020840B0020900B002061
:1022700004000020880B00204006002048060020B3
:1022800044060020BC0D0020080000204C06002061
:10229000C00D0020180000201A000020460D00206C
:1022A0001E0000201C000020940B0020A40D002024
:1022B000C80D00202DE9F0412A482B4C0022214670
:1022C00086462A4B2A4E1F8836F8023B0132BB4213
:1022D0002CBF00230123082A24F8023B20F8023BEC
:1022E000F2D10F88B1F802C007EB8703CE88C3EBA9
:1022F000C308CCEB0C138D889B0003EB48036744A9
:1023000006EB86084C8903EBC8033E4405EB8508C1
:10231000088908EB880835448A8903EB480304EBF5
:1023200084082C44C98903EB8803C0EB00182044BF
:1023300003EB480302EB8208024403EB48030A4420
:10234000DFF830800C491BB212B20A80A8F80030C6
:102350000A4912B193FBF2F30B800B88AEF81030F0
:10236000BDE8F081480D0020740B00202000002003
:1023700058060020900D00208E0D0020460D0020F4
:10238000F8B5FFF7A5F8FFF73BF9294B294E186878
:10239000FEF738F824A3D3E90023FEF79DF804469E
:1023A00030680D46FEF72EF802460B4620462946B9
:1023B000FDF7DCFEFEF7A2FA1F4B306018601F4BE2
:1023C0001F4E1868FEF71EF817A3D3E90023FEF787
:1023D00083F8044630680D46FEF714F802460B46B3
:1023E00020462946FDF7C2FEFEF788FA154D164B2A
:1023F0003060186004462868FEF704F80646204658
:102400000F46FDF7FFFF08A3D3E90023FEF764F8AA
:102410000B46024639463046FDF7A8FEFEF76EFA37
:102420000A4B28601860F8BD7B14AE47E17A843F00
:10243000240400206806002028060020080400204C
:10244000C40D00205C0D0020540600205006002022
:1024500008B5FFF795FF064B1B78012B07D1FFF757
:10246000FDFDFFF727FFBDE80840FFF783BE08BD6D
:10247000600D002010B594B0142200210CA805F0C6
:10248000C1FB142200210DEB020005F0BBFB102262
:10249000002101A805F0B6FB02244FF4803301228D
:1024A000CDE91143CDE90A234FF4E0130AA80E92B7
:1024B000139302F001FE08B172B6FEE70F23CDE9D7
:1024C00005344FF480630790CDE90830214605A814
:1024D00002F0B4FF08B172B6FEE7122301934FF485
:1024E0000043CDE9033001A803F064F808B172B6E7
:1024F000FEE714B010BD000000242DE9804893B021
:1025000000F046FDAF4BB04E1C70B04BB04D336089
:10251000FF23B0493481B04AF4803382347129609A
:102520002C81EC802B82AD4BDFF8B4821A604FF423
:102530007F02DC809A60AB4BAB48C8F80030AB4BF5
:10254000C8F80820186028209A60A94ADC80147016
:10255000A84A063310704FF4FA70A74A4FF0100AD9
:102560001080A64AA648D3604FF480731060A54F30
:10257000A548DFF898B21382C2E901013C702C71C2
:10258000A8F80640FFF776FF214652460BA805F053
:1025900039FBDBF818204FF4005142EA0A02CBF86D
:1025A0001820DBF818209A4802EA0A020192019AE0
:1025B000DBF818204FF0010942F02002CBF8182078
:1025C000DBF8182002F020020292029ADBF81820B1
:1025D00042F00402CBF81820DBF8182002F00402C5
:1025E0000392039ADBF8182042F00802CBF8182077
:1025F000DBF8182002F008020492049A224601F047
:1026000043FA22462221834801F03EFA4FF4005259
:1026100002237F480BA9CDE90B290D940E9301F0FD
:1026200059F9022322227B480BA90E93CDE90B29ED
:102630000D9401F04FF9784A76480BA9CDE90C29A1
:10264000CDF82CA001F046F9224621460A2000F0E0
:1026500083FF0A2000F0B0FFDBF81420214642EA95
:102660000902CBF81420DBF81430224603EA0903F0
:102670000B200093009B00F06FFF0B2000F09CFFED
:10268000DFF898B1664A4FF48073CDE90B440D949E
:10269000CBF800208BF80C404FF460228BF81440EC
:1026A000CBF8044008245846CBF80830CBF81C205F
:1026B000CBF8104000F0BEFE08B172B6FEE7CDE9DF
:1026C0000B090D900BA9584600F046FD08B172B6F3
:1026D000FEE7022358460BA90C9300F03DFD08B11C
:1026E00072B6FEE7032258460BA90C9200F034FDA7
:1026F00008B172B6FEE7042258460BA90C9200F00E
:102700002BFD08B172B6FEE7052258460BA90C92C4
:1027100000F022FD08B172B6FEE7062258460BA96A
:102720000C9200F019FD08B172B6FEE70722584678
:102730000BA90C9200F010FD08B172B6FEE75846E6
:102740000BA90C9400F008FD044608B172B6FEE730
:102750000146524607A805F055FA1C2221460BA84F
:10276000CDE9054405F04EFA40F2CF232D48DFF8BD
:10277000B8908460C0E900934FF47A738461C0E933
:10278000033403F035F908B172B6FEE74FF4805A0E
:10279000244807A9CDF81CA003F011FA08B172B6BD
:1027A000FEE7204803F050F908B172B6FEE7CDE924
:1027B000050005A91B4803F0FBFA0246B0B372B648
:1027C000FEE700BF950B0020780D00206C0900206B
:1027D000640D00206C0700206C060020980D00207E
:1027E000B00D00206C0A00206C080020A40D002011
:1027F0006C0B0020930D0020960D00202C0600206D
:1028000029170008940B002005170008001002404B
:1028100000100140000C014000002110A00B00201E
:1028200000240140B00C00200008004060230D90FF
:10283000CDE90B300F900BA9794803F05DF908B191
:1028400072B6FEE7042276480BA903F055F908B1E9
:1028500072B6FEE7082272480BA903F04DF908B1E1
:1028600072B6FEE70C226E480BA903F045F9044648
:1028700008B172B6FEE76A4800F0A2FA10222146BB
:102880000BA805F0BFF94FF08043DFF89891CDE930
:102890000744C9E9003444F250634846C9E90334A7
:1028A000C9F80840C9F8184003F0A2F808B172B698
:1028B000FEE748460BA9CDF82CA003F080F908B13B
:1028C00072B6FEE7CDE9070007A9484603F070FAA3
:1028D00008B172B6FEE75448544BDFF854E14FF4A8
:1028E0008042C0E900E30023C0E90233C0E90423C9
:1028F000C0E90633036201F0D7FA08B172B6FEE709
:102900004FF4E1334B4CDFF830C1C4E90200C4E9B5
:1029100000C30C232061C4E90530E061204603F0C8
:10292000DFFA814608B172B6FEE704F013FF4FF4F8
:102930007A7000F051FB414804F076FF3B78404844
:1029400069F382033B70FEF73FF93E493E48FEF7CC
:102950002BF83E4B3E481A883E4BDFF8FC90198816
:10296000FEF74CF83D48FEF75DFD3D48FEF760FD83
:102970002968EB8801229BB21944204603F0A9FC88
:10298000284802F02BFFFFF7AFFAFEF757FD00F0E3
:10299000DDF8DFF8D0A0344CFEF762F93B78190778
:1029A00006D56FF3C3033B70FFF7BCFAFFF750FD8A
:1029B0003B78DA0604D56FF304133B70FFF7EAFAAD
:1029C000B37C1BB149465046FFF710F8F2883389B3
:1029D00092B29BB29A4203D049465046FEF712FF8C
:1029E000B8F80620B8F808309A4201D0FFF7DAF9B3
:1029F000AB7C1BB121461D48FEF7F8FFEA882B8906
:102A000092B29BB29A4203D021461848FEF7FAFED2
:102A1000E28823899A42BFD0FFF70CFABCE700BFD7
:102A2000B00C0020680C0020140C0020801A060056
:102A300000580040F80C002000380140C91600087A
:102A40002C060020C17F0008DF7F00080C0000205A
:102A5000D07F00080E000020B00D00204D1D0008A2
:102A600025170008780D0020A40D0020640D00201B
:102A700072B6FEE77FB501234FF0FF32CDE9013298
:102A80000DF117028DF817000092782100220348FB
:102A900001F0B2FA07B05DF804FB00BF140C00208F
:102AA0001FB54FF0FF3389B2CDE9000102934022F8
:102AB00001237821024801F09FFA05B05DF804FB7C
:102AC000140C002000230649021E18BF0122013306
:102AD0005242B3F5806F01F8012BF5D1704700BF6A
:102AE000E60D002038B5B0240A4D2046FFF7C2FF9E
:102AF0000020FFF7BFFF01341020FFF7BBFFE4B257
:102B000028468021FFF7CCFFB82C05F18005ECD1D9
:102B100038BD00BFE60D002010B504468120FFF748
:102B2000A9FF2046BDE81040FFF7A4BF02460028D9
:102B300003460CBF13460123034A14BFAF20AE2047
:102B40005371FFF797BF00BFE00D002008B5642068
:102B500000F042FA0020FFF7E9FF2020FFF78AFF8C
:102B60000020FFF787FFB020FFF784FFC820FFF7A2
:102B700081FF0020FFF77EFF1020FFF77BFF402042
:102B8000FFF778FFFF20FFF7C7FFA120FFF772FFD5
:102B9000A620FFF76FFFA820FFF76CFF3F20FFF78D
:102BA00069FFA420FFF766FFD320FFF763FF002033
:102BB000FFF760FFD520FFF75DFFF020FFF75AFF1A
:102BC000D920FFF757FF2220FFF754FFDA20FFF745
:102BD00051FF1220FFF74EFFDB20FFF74BFF2020B5
:102BE000FFF748FF8D20FFF745FF1420FFF742FF56
:102BF0000120FFF79BFF0020FFF764FFFFF772FF44
:102C00000022034B1A805A8001221A7108BD00BFAE
:102C1000E00D00200E4B82B09A6942F001029A61E9
:102C20009A6902F001020092009ADA6942F0805239
:102C3000DA61DB69074A03F080530193019B536813
:102C400023F0E06343F00073536002B0704700BFAD
:102C5000001002400000014030B5054687B0102248
:102C6000002102A804F0CEFF2A68204B9A423BD1F3
:102C700003F56C439A691E4842F400729A619A699E
:102C800002A902F400720092009A9A69194C42F06B
:102C900004029A619B69FF2203F004030193019BE4
:102CA0000323CDE9022300F015FE80204FF480724B
:102CB0000023C4E903024FF480620F492046C4E9AF
:102CC0000013C4E90523A360E36100F097FC08B199
:102CD000FFF7CEFE002212202C621146656200F042
:102CE0003BFC122000F068FC07B030BD002401401E
:102CF00000080140D00B00200800024010B5044637
:102D000086B01022002102A804F07CFF2268114B3B
:102D10009A421DD1104C4FF44062A3690F4843F012
:102D20000803A361A36902A903F008030093009BB1
:102D30001223CDE902230323059300F0CBFDE369C1
:102D400043F48003E361E36903F480030193019B8F
:102D500006B010BD0058004000100240000C0140B9
:102D6000036807B5B3F1804F15D103F50433DA6971
:102D70001C2042F00102DA610022DB69114603F0F7
:102D800001030093009B00F0E7FB1C2003B05DF8FB
:102D900004EB00F011BC084A934209D1074BDA69F1
:102DA00042F00402DA61DB6903F004030193019B42
:102DB00003B05DF804FB00BF0008004000100240B3
:102DC00010B5044686B01022002102A804F01AFFB4
:102DD00022680D4B9A4214D103F502339A690B48CD
:102DE00042F008029A619B694FF4707203F0080385
:102DF0000193019B022302A9CDE90223059300F070
:102E000069FD06B010BD00BF00080040000C014085
:102E100010B5044686B01022002102A804F0F2FE8C
:102E200022681B4B9A4230D103F558439A691948DE
:102E300042F480429A619A6902A902F480420092A7
:102E4000009A9A69002442F004029A619B694FF447
:102E5000007203F004030193019B0223CDE90223D6
:102E60000323059300F036FD4FF48063094802A95F
:102E7000CDE90234049400F02DFD252022462146A0
:102E800000F06AFB252000F097FB06B010BD00BFE4
:102E90000038014000080140FEE7FEE7FEE7FEE7DC
:102EA000FEE770477047704700F084B808B5FFF739
:102EB000B1F8BDE80840102000F0ECBD014800F07A
:102EC00075BC00BFD00B0020014800F0C5B800BFA2
:102ED000A00B0020014801F003BB00BFB81E00207A
:102EE000014802F0AABC00BF680C0020014803F0B2
:102EF0008DB800BFF80C002070470000FFF7FCFF02
:102F00000B480C490C4A002302E0D458C450043347
:102F1000C4188C42F9D3094A094C002301E013601C
:102F20000432A242FBD304F089FEFFF7E5FA7047B2
:102F300000000020A0010020B8800008A0010020AF
:102F4000C8230020FEE7000038B50E4B05461A786E
:102F50004FF47A73B3FBF2F30B4A1068B0FBF3F053
:102F600000F038FB044658B90F2D09D8024629460F
:102F70004FF0FF3000F0F0FA2046044B1D6038BDE2
:102F80000120FCE728000020240000202C00002065
:102F9000074A08B51368032043F01003136000F0DC
:102FA000C9FA0F20FFF7D0FFFFF734FE002008BD5D
:102FB00000200240034A044B11681B780B44136045
:102FC000704700BFE811002028000020014B18685E
:102FD000704700BFE811002038B50446FFF7F6FF40
:102FE0000546631C1EBF044B1B78E418FFF7EEFF79
:102FF000431BA342FAD338BD28000020436A10B512
:103000009A6A12F0500F1BD19A6A42F400729A62C7
:103010001A68926802F46022B2F5602F0CD11A7B14
:1030200052B99A6A22F480729A629A6AD2045EBF96
:103030009A6A42F001029A621846FEF7A3FB10BD9D
:103040001B6ABDE810401B6B1847704708B5406A03
:10305000FFF7FBFF08BD7047036870B51D685E6829
:103060000446B00626D5A90724D5A26AD2065EBFBB
:10307000A26A42F40072A2629A6802F46022B2F577
:10308000602F10D1227B72B95A6822F020025A6058
:10309000A36A23F48073A362A36AD8045EBFA36A01
:1030A00043F00103A3622046FEF76CFB6FF01202AF
:1030B00023681A60310630D56A072ED5A36ADB066D
:1030C0005EBFA36A43F40053A36223689A6802F4C4
:1030D000E042B2F5E04F0AD05A68500516D49A681B
:1030E00002F46022B2F5602F10D1227B72B95A68C7
:1030F00022F080025A60A36A23F48053A362A36A79
:10310000D9055EBFA36A43F00103A362204600F025
:103110000FFA6FF00C0223681A6072060CD5EB07E9
:103120000AD5A36A204643F48033A362FFF793FFD6
:103130006FF0010223681A6070BD7047406A08B5DD
:10314000836A43F040038362C36A43F00403C362AB
:10315000FFF7F3FF08BD0000002373B5019390F85B
:1031600024300446012B6CD0012380F824304D68B4
:103170000268062D086805EB850322D81F26556BCB
:10318000053B9E4025EA060500FA03F32B435363F3
:1031900009288B6800EB40054FF0070129D9D66854
:1031A0001E3DA94026EA0101AB400B43D360A0F1CC
:1031B0001003012B25D90020002384F8243002B00D
:1031C00070BD0C2D4FF01F0509D8166B233B9D4099
:1031D00026EA050500FA03F32B431363D8E7D66A02
:1031E000413B9D4026EA050500FA03F32B43D362D9
:1031F000CEE71069A94020EA0101AB400B431361FF
:10320000D9E7114B9A4216D193681B02D3D4936825
:10321000102843F400039360CDD10C4B0C4A1B687B
:10322000B3FBF2F30A2253430193019B002BC2D05C
:10323000019B013BF8E7A36A012043F02003A3624E
:10324000BAE70220BBE700BF0024014024000020B1
:1032500040420F00002337B50193036804469A6883
:10326000D20702D5002003B030BD9A6842F00102B7
:103270009A60144B144A1B68B3FBF2F30193019B51
:10328000E3B9FFF7A3FE054623689B68DB07E9D493
:10329000FFF79CFE401B0228F6D923689B6813F0B9
:1032A0000103F1D1A26A012042F01002A262E26A97
:1032B00084F8243042F00102E262D4E7019B013B32
:1032C000DCE700BF2400002040420F002DE9F04160
:1032D000404B9046026804469A420F4602D03E494F
:1032E0008A4203D15B6813F4702F6ED194F82430B6
:1032F000012B6CD00123204684F82430FFF7AAFF6D
:10330000064600285DD1A56A2168334B25F4706517
:1033100025F0010545F480759942A56204D12D4A36
:10332000536813F4702F3ED1A36A23F48013A36271
:103330004B685A0505D5A36A23F4405343F48053E0
:10334000A362A36A206A13F4805318BFE36A3A4663
:1033500018BF23F00603E362002384F824301F4BD8
:103360004C3183621E4BC3621E4B03636FF002033A
:1033700041F84C3C51F8443C43F4807341F8443CE0
:10338000434600F06DF923689A6802F46022B2F5B2
:10339000602F9A680CBF42F4A00242F480129A6037
:1033A0003046BDE8F081A36A43F48013A3625368FA
:1033B0005B0541BFA06A20F4405040F48050A062F9
:1033C000BFE7002384F82430EAE70126E8E7022675
:1033D000E6E700BF0024014000280140FD2F00085F
:1033E0004D3000083D31000838B5036804469A683E
:1033F000D10701D4002038BD9A6822F001029A60FA
:10340000FFF7E4FD054623689B68DB07F2D5FFF76D
:10341000DDFD401B0228F6D923689B68DA07F2D548
:10342000A36A012043F01003A362E36A43F001039F
:10343000E362E0E7F8B5044600286DD0836A23B95B
:10344000C36280F82430FFF707FC2046FFF7CCFF6B
:10345000A36A13F0100361D100285FD1A26A6168EA
:1034600022F4885222F0020242F00202E569A668C4
:10347000A262227B2943B6F5807F41EA420136D021
:10348000771E7D427D412D02277D012F06D182BB13
:10349000A269013A45EA423242F400652268B6F573
:1034A000807F576827F4694745EA070555609768A4
:1034B0001D4D05EA070545EA0105956001D0012E7D
:1034C00002D12369013B1B05D56A25F470052B4306
:1034D000D3629268154B1340994213D10023E362E3
:1034E000A36A23F0030343F00103A362F8BD35464A
:1034F000CAE7A26A42F02002A262E26A42F0010236
:10350000E262CBE7A36A23F0120343F01003A36245
:10351000E36A43F00103E3620120E7E7A36A43F0B3
:103520001003A362F8E700BFFDF7E1FFFE0E1FFFE7
:103530007047000007490302CA6803F4E06322F4FD
:10354000E0621204120C134343F0BF6343F40033F0
:10355000CB60704700ED00E0154B30B5DC68C4F37C
:103560000224C4F10703251D042B28BF0423062DC4
:103570004FF0FF3594BF0024033C05FA03F321EA22
:103580000303A54022EA0502A340002843EA020300
:10359000ACBF00F16040074A4FEA0313DBB2ABBF98
:1035A00000F5614000F00F0080F80033135430BD87
:1035B00000ED00E014ED00E0002807DB01234109E5
:1035C000034A00F01F00834042F82130704700BFDB
:1035D00000E100E00138B0F1807F0BD24FF0E02332
:1035E000F021054A586182F82310002007229861D3
:1035F0001A6170470120704700ED00E0034610B5E6
:1036000040B314210068144A0244B2FBF1F2920064
:103610001A64124ADA63022283F82120D3E90124D2
:103620002243DC68016822431C6921F47F51224354
:103630005C6921F0300122439C692243DC6922430A
:103640000A43026000200122986383F8200083F877
:10365000212010BD0120FCE7F8FFFDBF0000024063
:10366000F0B5054690F82000012836D0012085F8F5
:10367000200095F8210000240128C6B24FF0020076
:1036800028D185F82100AC632C68206820F0010067
:103690002060D5E90F7006FA00F0786063606B680F
:1036A000102BEB6A0BBFA260A160E160E2604BB13E
:1036B000236843F00E0300202360236843F00103D6
:1036C0002360F0BD236823F004032360236843F0E4
:1036D0000A03F0E785F82040F3E70220F1E790F8CD
:1036E00021200346022A06D0042282630120002200
:1036F00083F8202070470268C06B116821F00E012A
:103700001160116821F00101116001211A6C01FAA8
:1037100002F24260002083F82110E8E710B590F82B
:103720002130022B03D004238363012010BD0368E2
:103730001A6822F00E021A601A6822F001021A605A
:10374000184A93421FD0143293421ED0143293422F
:103750001DD0143293421DD0143293421DD0143226
:1037600093420CBF4FF480134FF080730E4A002435
:103770005360012380F82130436B80F820407BB1F7
:1037800098472046D2E70123F0E71023EEE74FF4F5
:103790008073EBE74FF48053E8E74FF48033E5E7BD
:1037A0001846C3E7080002400000024070B4042538
:1037B000C66B026C3468036895402542196832D0A4
:1037C0004D0730D51A6896065EBF1A6822F00402CB
:1037D0001A603E4A934219D01432934218D01432E0
:1037E000934217D01432934217D01432934217D019
:1037F000143293420CBF4FF480034FF08063344A7D
:103800005360C36A002B5ED070BC18470423F6E7F0
:103810004023F4E74FF48063F1E74FF48043EEE791
:103820004FF48023EBE702259540254235D08D07E4
:1038300033D51A68940606D41A6822F00A021A6070
:10384000012280F82120214A934219D01432934258
:1038500018D01432934217D01432934217D0143236
:10386000934217D0143293420CBF4FF400134FF021
:103870000073174A5360002380F82030836AC1E741
:103880000223F6E72023F4E74FF40073F1E74FF447
:103890000053EEE74FF40033EBE70825954025424F
:1038A00011D009070FD5196821F00E011960012305
:1038B00003FA02F27260836380F82130002380F8FB
:1038C0002030036B9EE770BC704700BF08000240C9
:1038D000000002402DE9F74F00221646644F654B69
:1038E000DFF894C1DFF894E10D6835FA06F402D1EF
:1038F00003B0BDE8F08F4FF0010808FA06F805EABA
:10390000080438EA05057AD14D68032D07D8013D32
:10391000022D00F28780DFE805F0959AA000122DB5
:1039200000F098806DD8112D00F08E80FF2C98BF8C
:1039300082464FF00F0988BF00F1040A4FEA86055E
:10394000DAF8008088BF203D09FA05FB28EA0B0859
:1039500002FA05F548EA0505CAF80050D1F804A0B6
:103960001AF0805F4BD0BD6926F0030845F00105D1
:10397000BD61BD6908F1804805F00105019508F5B4
:10398000803806F0030B019D4FEA8B0BD8F80850E6
:1039900009FA0BF925EA0909394DA84261D005F564
:1039A0008065A8425FD005F58065A8425DD005F529
:1039B0008065A8420CBF0325042505FA0BF545EAEE
:1039C0000905C8F808509D681AF4801F14BF2543E4
:1039D000A5439D60DD681AF4001F14BF2543A5436D
:1039E000DD605D681AF4003F14BF2543A5435D60A8
:1039F0001D681AF4803F14BF2543A5431D6001369E
:103A000072E7DFF880904D450CD017D8A9F58019E2
:103A10004D4507D009F570294D4503D0A9F580190A
:103A20004D4583D18A68D2B1012A08BFC0F8108001
:103A30004FF0080218BFC0F8148077E76545F1D051
:103A40007545EEE7CA6871E7CA6804326EE7CA686E
:103A500008326BE7CA680C3268E7002266E7042286
:103A600064E70025A9E70125A7E70225A5E700BF30
:103A7000001002400004014000003110000032102C
:103A800000080140000022100AB1016170470904DA
:103A9000FBE77047044A08B55169014202D0506102
:103AA000FFF7F7FF08BD00BF0004014001680022D6
:103AB0004B6913F4806310D06FF480634B61202353
:103AC000026380F83D3080F83E20036C80F83C2093
:103AD00043F00403036401207047184670472DE942
:103AE000F84606460F4691461D464FEA114A33688E
:103AF000BAF1010F0CBF5C699C6927EA0404A4B207
:103B0000B4FA84F46409A14501D0002025E06A1CC0
:103B1000EED0FFF75BFA089BC01AA84201D8002D2F
:103B2000E5D13368BAF1010F0CBF5B699B6927EAE5
:103B300003039BB2B3FA83F35B099945D7D1002302
:103B400020220120336386F83D2086F83E30326C17
:103B500086F83C3042F020023264BDE8F8862DE958
:103B6000F04104460F46164698462568686927EADC
:103B7000000080B2B8B16B695A0516D52B682022B7
:103B800043F400732B606FF480636B610023236345
:103B900084F83D2084F83E30226C42F0040201207B
:103BA000226484F83C30BDE8F081731CDED0FFF75E
:103BB0000DFAA0EB0800B04201D8002ED5D1236841
:103BC0005A6927EA020292B2002ACED000232022AC
:103BD000236384F83D2084F83E30226C42F02002BA
:103BE000DDE770B504460D46164623685B691B0683
:103BF00001D5002070BD2046FFF758FFC8B96A1CE8
:103C0000F3D0FFF7E3F9801BA84201D8002DECD1D7
:103C100023685B6913F08003E7D12022236384F8D3
:103C20003D2084F83E30226C84F83C3042F0200283
:103C300022640120DEE700002DE9F043154602680A
:103C40009946136885B043F480731360DDE90C78FE
:103C50000E463B4600224FF00111CDF8008004468D
:103C6000FFF73DFF236838B11B68DB0502D54FF431
:103C70000073236403200AE006F0FE061E613A4644
:103C8000434620461749FFF76AFF18B1012005B0E7
:103C9000BDE8F083236803905A69394603929B6913
:103CA000424603932046039BFFF79BFF40B1236CE2
:103CB000042B01BF2268136843F400731360E5E727
:103CC000B9F1010F236802D1EDB21D61DFE72A0AC5
:103CD0001A61394642462046FFF783FF0028E6D1A5
:103CE0002368F1E7020001002DE9FF479A46DDE96C
:103CF0000C78036815461A680E4642F480621A6012
:103D00001A684FF0011142F480721A603B4600229B
:103D1000CDF800800446FFF7E2FE236848B11B6837
:103D2000DB0502D54FF400732364032004B0BDE823
:103D3000F0875FFA86F906F0FE061E613A464346B2
:103D400020462949FFF70BFF08B10120EEE7236861
:103D500003905A69394603929B6942460393204671
:103D6000039BFFF73EFF40B1236C042B01BF226889
:103D7000136843F400731360E7E7BAF1010F236897
:103D80001AD1EDB24246394620461D61FFF729FFA0
:103D900002460028E8D1216820460B6843F480736E
:103DA0000B603B464FF00111CDF80080FFF797FE06
:103DB000226860B11368B3E72A0A1A61394642469D
:103DC0002046FFF70EFF0028CED12368D9E749F03F
:103DD00001031361204643463A460349FFF7BFFEFD
:103DE000003818BF0120A1E70200010070B50446A9
:103DF0000D46164623685B695B0701D5002070BD40
:103E00002046FFF753FEC8B96A1CF3D0FFF7DEF86F
:103E1000801BA84201D8002DECD123685B6913F008
:103E20000403E7D12022236384F83D2084F83E3048
:103E3000226C84F83C3042F0200222640120DEE74C
:103E400070B504460D46164621684B6913F04003D1
:103E500001D0002010E04A69D2060ED56FF01002A2
:103E60004A612022236384F83D2084F83E30226C8E
:103E70000120226484F83C3070BDFFF7A7F8801B56
:103E8000A84201D8002DDFD123685B6913F04003FD
:103E9000DAD12022236384F83D2084F83E30226C5E
:103EA00042F02002E4E7000070B5044608B90120A2
:103EB00070BD90F83D3003F0FF021BB980F83C2044
:103EC000FEF71CFF242384F83D3023681A6822F093
:103ED00001021A601A6842F400421A601A6822F459
:103EE00000421A6001F046FB3F4B65689D4294BF5B
:103EF0003E4B3F4B98428CBF00230123002BD6D171
:103F0000394E3C4BB542B0FBF3F388BF4FF4967685
:103F10002268516821F03F0141EA030182BF7343E7
:103F20004FF47A76B3FBF6F35160116A013321F056
:103F30003F010B431362D169431E2B4821F44F41CB
:103F4000854221F0FF0132D86D00B3FBF5F340F656
:103F5000FC700133034242D0C3F30B031943D16118
:103F60001168D4E9073021F0C00103430B4313600B
:103F70009168D4E9030321F40341034321F0FF01D5
:103F80000B439360D168D4E9053021F0FF0103436E
:103F90000B43D3601368002043F001031360202318
:103FA000206484F83D30206384F83E0080E7A068F8
:103FB00050B905EB4505B3FBF5F30133C3F30B0330
:103FC0007BB143F40043C9E719206843B3FBF0F326
:103FD0000133C3F30B0323B143F44043BEE704238F
:103FE000BCE70123BAE700BFA08601007F841E0062
:103FF000FF083D0040420F002DE9F7430446994673
:104000000F4690460C9EFEF7E1FF94F83D300546C2
:10401000202B03D0022003B0BDE8F08300901923C9
:10402000012220463A49FFF75AFD0028F2D194F8C0
:104030003C30012BEED00123206884F83C3003682B
:104040004246D90758BF036839465CBF43F00103B5
:104050000360036823F400630360212384F83D3088
:10406000402384F83E30002323640A9B2046636289
:10407000BDF82C30CDE900656385638D2385254B24
:10408000E3624B46FFF7D8FD00282AD00120C2E7A3
:10409000FFF7A7FD40B1236C042B01BF2268136812
:1040A00043F400731360F1E7636A27681A4612F855
:1040B000011B39616262628D218D013A92B2628583
:1040C0007A69481E80B2520720850AD548B15A78CD
:1040D00002333A616362638D0239013B9BB22185F1
:1040E0006385238D2A4631462046002BD0D1FFF729
:1040F0007DFE0028CFD12268136843F4007313605B
:10410000202384F83C0084F83D3084F83E0082E7A8
:10411000020010000000FFFF2DE9F0439946002344
:10412000044689B003930D469046129FFEF74EFF5A
:1041300094F83D300646202B04D00225284609B0CD
:10414000BDE8F08300901923012220468D49FFF736
:10415000C6FC0028F1D194F83C30012BEDD00123AE
:10416000206884F83C3003682946DB0758BF0368A1
:1041700042465CBF43F001030360036823F400631D
:104180000360222384F83D30402384F83E3000232E
:104190002364109B20466362BDF84430CDE900766D
:1041A0006385638D2385784BE3624B46FFF79CFD67
:1041B000054608B10125C1E7228D2368C2B90490E4
:1041C0005A6904929A690492049A1A6842F4007235
:1041D0001A60DFF8B881DFF8B891238D002B37D152
:1041E000202284F83C3084F83D2084F83E30A5E756
:1041F000012A11D11A6822F480621A6072B623680B
:1042000005905A6905929A690592059A1A6842F4CE
:1042100000721A6062B6DCE7022A1A680ED142F414
:1042200000621A6072B6236806905A6906929A690B
:104230000692069A1A6822F48062EAE742F48062E3
:104240001A6007905A6907929B690793079BC0E71A
:10425000032B78D8012B15D1324639462046FFF77B
:10426000EFFD0028A6D123681A69636A1A70636A91
:1042700001336362238D013B2385638D013B9BB238
:104280006385AAE7022B4FF000023B4641462046D9
:10429000009618D1FFF723FC00288BD172B6236853
:1042A0001A6842F400721A601A69636A1A70636AC3
:1042B00001336362238D013B2385638D013B9BB2F8
:1042C000638562B6CFE7FFF70AFC00287FF472AF80
:1042D0002268136823F48063136072B646F2A81153
:1042E00023681A69636A1A70626A531C6362238DB9
:1042F000013B2385638D013B9BB26385D9F8003078
:10430000B3FBF1F323214B430393039B013B039343
:10431000039B6BB92022236384F83D2084F83E3050
:10432000226C42F02002226462B684F83C3041E7FD
:10433000236859694807E8D5196841F40071196084
:104340001B695370B3E7324639462046FFF778FDC4
:1043500000287FF42FAF23681A69636A1A70626AB3
:10436000531C6362238D013B2385638D013B9BB20C
:1043700063852368596949077FF52FAF1B6953701F
:1043800075E700BF020010000000FFFF04000100FD
:1043900024000020F0B5044687B010B390F8A9328D
:1043A00003F0FF021BB980F8A82203F0C3FA03232D
:1043B00025466E4684F8A93255F8100B01F0AAFF85
:1043C0000FCD0FC62B68271D3360264697E80E00D9
:1043D00056F8100B01F08EFF054620B1022384F839
:1043E000A93201254BE00146206801F09DFF2946D6
:1043F0004FF0010E28250A46D4F804C0C8B28445FF
:1044000001F101011BD8002328251946D8B28445A3
:1044100003F101031FD8EC4635460FCDACE80F0081
:104420002B68CCF8003097E80E00206801F07EFF82
:1044300001230546E0B1022284F8A922D1E705FB59
:104440000043C3E90E2283F829E083F8280083F8AB
:104450002B201A64D2E705FB0042C2E95E1182F804
:10446000691182F8680182F86B11C2F88011CDE7FA
:1044700084F82400206884F8A93202F00FFA284654
:1044800007B0F0BD38B590F8A8320446012B10D023
:10449000012580F8A852006801F033FF2946204624
:1044A00003F053FB206802F0F7F9002084F8A8021B
:1044B00038BD0220FCE710B590F8A8220446012A76
:1044C0000BD0012280F8241080F8A822006802F0A6
:1044D000DDF9002084F8A80210BD0220FCE70000EE
:1044E0002DE9F04F044685B0006802F0D9F910F4C8
:1044F000004500F02484DFF81C93DFF81C8320685B
:10450000B0F844301F0402D405B0BDE8F08FB0F815
:104510004460B1B216F00F0640F0C68011F01001F1
:104520002BD103889BB203EA090343F400430380C1
:10453000B0F8503094F828209BB203EBC20300EB94
:104540004303B3F80434E26BC3F309031A4463640E
:104550002046E26303F01DFA94F82430002BCED0FD
:10456000226C2168002ACAD194F8243043F08003D9
:10457000A1F84C3084F82420C1E70588ABB215F4CB
:10458000006521D0B0F8503094F868219BB203EB5D
:10459000C20300EB4303B3F80C34B4F86E21C3F349
:1045A0000903C4F8843104F52C7102F0A7FB2268DA
:1045B0002046138823F070031B051B0D43F0800376
:1045C000138003F0D7F99AE7190498D5038823F0EC
:1045D00070031B051B0D43F080030380B0F85030BF
:1045E00094F868219BB203EBC20300EB4303B3F8DA
:1045F0000C34C3F30903C4F884318BB1D4F87C11B3
:1046000071B1B4F86E2102F079FBD4F87C31D4F8A2
:104610008421294613442046C4F87C3103F0B0F9C4
:1046200021680A8893B212053FF569AF03F440533D
:10463000B3F5405F3FF463AFB1F8503001F20C4086
:104640009BB2C25AC2F30902C252D4F878213E2A60
:104650000CD95509D706C25A08BF05F1FF3592B2E9
:1046600042EA852242EA080292B204E09AB9C25AAA
:1046700092B242F40042C2520B8823F4804323F0EA
:1046800070031B041B0C83F4405343F4004343F0BA
:1046900080030B8033E75508D607C25A48BF01355F
:1046A00092B242EA8522DFE730F826301A049FB240
:1046B00040F1F180282130F8263001FB064123F03B
:1046C00070031B051B0D43F0800320F8263091F882
:1046D000743100F5806CB3B9B0F8503091F86821AE
:1046E0009BB2063303EBC2033CF81350C5F3090534
:1046F000002D00F0B4802B46B1F86E21D1F87C116A
:1047000002F0FCFAABE091F86B2191F86831022AD3
:1047100040F08480B0F850504FEAC30BADB217F4AC
:10472000804AD1F880215D4407F0400E39D002352F
:104730003CF81550C5F30905954213D90022C1F87C
:10474000802130F8232022F4804222F070021204EB
:10475000120C82F4005242F4004242F0800220F82F
:10476000232004E0521BC1F88021002AE9D0BEF1C9
:10477000000F0DD030F8232022F4E04222F0700226
:104780001204120C42F4004242F0C00220F823202E
:10479000002D64D0282101FB06412B46B1F8702181
:1047A000ACE706353CF81550C5F30905954212D91A
:1047B000C1F880A130F8232022F4804222F0700258
:1047C0001204120C82F4005242F4004242F08002C1
:1047D00020F8232004E0521BC1F88021002AE9D0F0
:1047E000BEF1000F0DD130F8232022F4E04222F078
:1047F00070021204120C42F4004242F0C00220F88F
:10480000232065B3282101FB06412B46B1F8722114
:1048100074E700BF0F8FFFFF0080FFFF30F82320F9
:1048200022F4E04222F070021204120C42F4004220
:1048300042F0C00220F8232091F8682130F822309D
:10484000D20013F4804FB0F850309BB255D00233F1
:1048500013443CF81350C5F30905002D9DD12821C0
:1048600071436318D3F884212A44C3F88421D3F810
:104870007C212A44C3F87C21D3F880211AB1D3F8D3
:1048800078319D4242D2282303FB0643204693F809
:10489000681103F075F83B0620687FF530AE2822DA
:1048A00030F8263002FB06459BB203EA090343F4C5
:1048B000004320F8263095F82B30012B50D10021F1
:1048C00095F83430296493B317F0400795F8292000
:1048D00095F8283031D002BBB0F850201B0192B2BD
:1048E00000F2044010441A5AC2F309021A521A5A2A
:1048F00092B242F400421A5219E006331A443CF8CC
:104900001250C5F30905002DA9D07EE701F5B47159
:104910002068214401F0DAFFBDE7012A07D1B0F891
:10492000502000F2044092B21B011044195295F835
:104930002810204603F02DF8E1E532B9B0F85020F8
:104940001B0192B200F20C40CCE7012AEFD1B0F883
:10495000502000F20C4092B21B0110441F52E6E7B7
:1049600095F8281017F4807C2B6C4FEAC10A00F5EB
:10497000806E1BD1B0F85070BFB2574402373EF87A
:104980001770C7F309079F4202D3C5F840C0D0E7AC
:10499000DB1B2B64EB6B06FB02223B44EB636B6C73
:1049A000A1183B446B6401F091FFA8E5B0F85020DA
:1049B00017F0400C92B2524407F4804700F0DC80BC
:1049C00002323EF812204FF0280CC2F309029A423C
:1049D00028BF00230CFB064C38BF9B1ACCF8403094
:1049E000BFB2002B4DD195F82920002A36D1B0F85E
:1049F000502000F2044692B20B011644F25AC2F360
:104A00000902F252F25A92B242F40042F252B0F863
:104A1000502000F20C4092B21044C25AC2F3090274
:104A2000C252C25A92B242F40042C252204602F02E
:104A3000B0FF002F00F0DC8095F82810226832F8D3
:104A4000213023F4E04323F070031B041B0C43F4D8
:104A5000404343F0800322F82130C9E0012AE5D128
:104A6000B0F850C000F204461FFA8CFC0A016644FC
:104A7000B352B0F8506000F20C40B6B230448352EA
:104A8000D4E76FB130F8213023F4E04323F0700312
:104A90001B041B0C43F4404343F0800320F82130F7
:104AA000282707FB064797F84C30012B40F0A080E1
:104AB000FB6BD7F848E003EB020C7B6CC7F83CC0FB
:104AC00013447B64BB6B9E452CD3AEEB0302BA64EC
:104AD00095F829201FFA83FE002A41D1B0F85070C2
:104AE00000F20442BFB23A440901575A3E2BC7F3C1
:104AF0000907575223D9DF06575A4FEA531A08BFFE
:104B00000AF1FF3ABFB247EA8A2747EA0807BFB26D
:104B1000575228227346614602FB0642128E01F06C
:104B2000C5FE65E0BEF1000F03D1134687F84CE0E7
:104B3000CEE7002387F84C30BB647346C8E72BB937
:104B4000535A9BB243F400435352E2E75F08DB073A
:104B5000535A48BF01379BB243EA87239BB2F3E71E
:104B6000012AD6D1B0F8502000F2044392B2134487
:104B7000090123F801E0CCE706323EF81220BFB26B
:104B8000C2F309029A4288BF63464FF0280C0CFB1F
:104B9000064C98BF9B1ACCF84030002B4ED195F8AC
:104BA0002920002A37D1B0F8502000F2044692B2F2
:104BB0000B011644F25AC2F30902F252F25A92B2AF
:104BC00042F40042F252B0F8502000F20C4092B28F
:104BD0001044C25AC2F30902C252C25A92B242F4FB
:104BE0000042C252204602F0D4FE002F3FF424AF10
:104BF00095F82810226832F821309BB223F4E04364
:104C000023F0400383F0300343F4004343F0800378
:104C100022F8213073E4012AE4D1B0F850C000F248
:104C200004461FFA8CFC0A016644B352B0F8506087
:104C300000F20C40B6B230448352D3E76FB930F87B
:104C4000213023F4E04323F070031B041B0C43F4D6
:104C5000404343F0800320F821304FF0280C0CFB38
:104C6000064C9CF84C30012BC2D1DCF84430DCF807
:104C70003C701344DCF848E0CCF84430DCF83830C1
:104C800017449E45CCF83C7027D3AEEB0302CCF81A
:104C9000482095F829201FFA83FC002A43D1B0F858
:104CA00050E000F20C421FFA8EFE7244090132F805
:104CB00001E03E2BCEF3090E22F801E01BD94FEAAA
:104CC000531EDB06535A08BF0EF1FF3E9BB243EA68
:104CD0008E2343EA08039BB212E0BEF1000F03D11A
:104CE00013468CF84CE0D4E70023CCF848308CF81D
:104CF0004C307346CDE75BB9535A9BB243F4004343
:104D00005352282303FB064639466346728E06E754
:104D10004FEA530EDB07535A48BF0EF1010E9BB208
:104D200043EA8E23D7E7012AEBD1B0F8502000F2F6
:104D30000C4392B213440A0123F802C0E1E746058E
:104D400012D522682046B2F8443023F480631B0455
:104D50001B0CA2F8443002F028FE2946204605B07C
:104D6000BDE8F04FFFF7A7BB41040AD52268B2F8AF
:104D7000443023F480431B041B0CA2F84430FFF79B
:104D8000C3BB820405D52268B2F8443023F4005333
:104D9000F1E7C30419D522682046B2F8403023F069
:104DA00004031B041B0CA2F84030B2F8403023F07F
:104DB00008031B041B0CA2F8403002F019FE226805
:104DC000B2F8443023F48053D5E7070548D5684648
:104DD000226806461146134602F1200533F8047B8B
:104DE0009D4226F8027BF9D1B2F840309BB243F0E5
:104DF0000103A2F84030B2F8403023F001031B0455
:104E00001B0CA2F84030B2F844305E05FBD5B2F876
:104E1000443023F480631B041B0CA2F8443030F8A8
:104E2000023B21F8043B8D42F9D1B2F840302046D4
:104E30009BB243F00803A2F84030B2F8443023F4A8
:104E400000631B041B0CA2F84430B2F840309BB244
:104E500043F00403A2F8403002F0BAFDFFF754BB60
:104E600082050DD522682046B2F8443023F4007341
:104E70001B041B0CA2F8443002F093FDFFF744BB67
:104E8000C3057FF541AB2268B2F8443023F4807348
:104E900071E700BF11F0800F70B5054601F0070003
:104EA0004FF028011AD0012400FB011129444C7055
:104EB000022BCB7008BF0023087008BF0B710A617A
:104EC00095F8A832012B13D00123286885F8A83261
:104ED00001F040FA002085F8A80270BD002601FB11
:104EE00000F404F5B4712C44294484F86961DFE7C7
:104EF0000220F2E711F0800F10B501F0070204461E
:104F00004FF0280113D0012302FB011101444B7023
:104F10000A7094F8A832012B13D00123206884F87A
:104F2000A83201F077FB002084F8A80210BD01FB35
:104F300002F303F5B47101440344002083F86901CE
:104F4000E6E70220F2E770B52824002601F0070109
:104F50004C43051985F8681104F5B4710144C5E99D
:104F60005F23C5F8846185F86961006801F0AEFCD3
:104F7000304670BD282301F0070103FB0100D0F883
:104F80008401704770B501F00705282101FB050475
:104F90000026C4E90F23012205FB011184F84C20EF
:104FA0000144A364666484F8292084F828500068CA
:104FB00001F08CFC304670BD38B5436801F0070540
:104FC0009D42044628D811F0800F4FF028031AD0D4
:104FD00005FB0333C11801234B7001230D708B7047
:104FE00094F8A8229A4219D0206884F8A83201F0D7
:104FF000E4FB25B9206804F52C7101F055FC002074
:1050000084F8A80238BD00224B4303F5B471034471
:10501000014483F86921E0E70120F3E70220F1E78A
:1050200038B5436801F00F029A42044626D811F0C1
:10503000800F01F007024FF0280115D0012302FB79
:10504000011101444B7000250A708D7094F8A8324C
:10505000012B15D00123206884F8A83201F0CDFB84
:10506000284684F8A85238BD01FB02F303F5B47159
:1050700001440344002083F86901E4E70120F2E7DA
:105080000220F0E710B5282411F0800F1BBF01F0BB
:10509000070101FB044404FB0100001908BF00F5EF
:1050A000B47099B21AB90273C180002010BD0122F8
:1050B00083600273F9E700002DE9F341054638B338
:1050C0000368DB0710D42B689F075ED42B68190791
:1050D00000F195802B685A0700F1C180E86900282B
:1050E00040F02C81002029E0904C636803F00C0311
:1050F000042B07D0636803F00C03082B0AD1636804
:10510000DE0307D523689C03DDD56B68002BDAD15D
:10511000012013E06B68B3F5803F12D1236843F49C
:1051200080332360FDF752FF064623689803CAD4F4
:10513000FDF74CFF801B6428F7D9032002B0BDE8BF
:10514000F0819BB9236823F480332360236823F420
:1051500080232360FDF73AFF064623689903B2D502
:10516000FDF734FF801B6428F7D9E6E7B3F5A02FDD
:10517000236803D143F480232360CFE723F48033F3
:105180002360236823F48023CBE7684C636813F023
:105190000C0F07D0636803F00C03082B10D1636871
:1051A000DA030DD423689B0702D52B69012BAFD1FD
:1051B00023686A6923F0F80343EAC203236085E7A2
:1051C0002A695B4B6AB101221A60FDF7FFFE0646B1
:1051D00023689F07ECD4FDF7F9FE801B0228F7D95E
:1051E000ABE71A60FDF7F2FE0646236898077FF5E5
:1051F0006DAFFDF7EBFE801B0228F6D99DE7AA698B
:105200004A4E4B4BE2B10122C3F88024FDF7DEFE8B
:105210000446736A9B070DD54FF4FA52454B1B6841
:10522000B3FBF2F3019300BF019B5A1E0192002BC6
:10523000F9D14FE7FDF7CAFE001B0228E9D97CE748
:10524000C3F88024FDF7C2FE0446736A9F077FF50A
:1052500041AFFDF7BBFE001B0228F6D96DE7334CCA
:10526000E369D80024D40127E36943F08053E36164
:10527000E36903F080530093009B2F4E3368D905F8
:1052800018D5EB68012B26D1236A43F00103236272
:10529000FDF79CFE41F288380646236A9B073FD5FE
:1052A000002F3FF41BAFE36923F08053E36115E760
:1052B0000027E2E7336843F480733360FDF786FE2E
:1052C00080463368DA05DCD4FDF780FEA0EB0800E9
:1052D0006428F6D931E7ABB9236A41F2883823F064
:1052E00001032362236A23F004032362FDF76EFEA9
:1052F0000646236A9807D3D5FDF768FE801B404514
:10530000F7D91AE7052B236A03D143F0040323627C
:10531000BAE723F001032362236A23F00403B6E70C
:10532000FDF754FE801B4045B7D906E70010024048
:105330000000424224000020007000402A4C6368B4
:1053400003F00C03082B3ED00022284B02281A66DB
:105350002CD1FDF73BFE06462368990120D42B6A29
:10536000B3F5803F05D16268A96822F400320A4390
:105370006260696A62680B4322F47412134301226B
:1053800063601A4B1A66FDF721FE054623689A01F1
:105390003FF5A8AEFDF71AFE401B0228F6D9CCE671
:1053A000FDF714FE801B0228D6D9C6E6FDF70EFED7
:1053B000054623689B017FF595AEFDF707FE401B70
:1053C0000228F6D9B9E601283FF4B8AE63682A6A24
:1053D00003F4803191427FF49BAE6A6A03F4701348
:1053E00093423FF47FAE93E6001002400000424239
:1053F0000D4A536803F00C01082912D10B48C3F37E
:105400008341DB03405C09D55368094AC3F3404339
:105410005043084AD35CB0FBF3F07047064B584347
:1054200070470348704700BF0010024030800008FA
:1054300000127A004080000800093D002DE9F0418B
:105440000D46044610B90120BDE8F081444A1368B6
:1054500003F007038B4228D321688E0730D4CA0794
:1054600043D43F4A136803F00703AB4265D8226870
:105470003C4D12F0040F6CD1130706D56B682269FE
:1054800023F4605343EAC2036B60FFF7B1FF6B681C
:10549000354AC3F30313D35CD840344B1860344B04
:1054A0001868FDF751FD0020CEE7136823F00703CD
:1054B0000B431360136803F007038B42C3D1CBE7A0
:1054C000284B11F0040F1EBF5A6842F4E0625A6084
:1054D000080742BF5A6842F460525A605A68A0688E
:1054E00022F0F00202435A60B9E762681D4E012AB9
:1054F00033681AD113F4003FA5D0736841F288389D
:1055000023F0030313437360FDF760FD07467368E0
:10551000626803F00C03B3EB820FA2D0FDF756FDD7
:10552000C01B4045F3D903208EE7022A02D113F0B5
:10553000007FE1E713F0020FDEE7136823F00703B3
:105540002B431360136803F00703AB427FF47BAF78
:105550008DE76B68E16823F4E0630B436B608BE7D6
:1055600000200240001002401880000824000020A3
:105570002C000020044B054A5B68C3F30223D35C74
:10558000034A1068D8407047001002402880000885
:1055900024000020044B054A5B68C3F3C223D35C9C
:1055A000034A1068D8407047001002402880000865
:1055B0002400002003682DE9F341D907054621D5D1
:1055C000364CE369DA0033D40126E36943F08053B3
:1055D000E361E36903F080530193019B304F3B6823
:1055E000DB0527D5236A6A6813F4407336D1236A32
:1055F0006A6823F44073134323621EB1E36923F006
:105600008053E3612868830706D52449AB684A685C
:1056100022F440421A434A6010F010001BD01F4A87
:10562000E9685368002023F480030B43536012E0C1
:105630000026D3E73B6843F480733B60FDF7C6FC6C
:1056400080463B68D805CDD4FDF7C0FCA0EB080030
:105650006428F6D9032002B0BDE8F08102F440725C
:105660009A42C4D001200F4A236AC2F840040020A5
:1056700023F44071C2F840042162D907B7D5FDF781
:10568000A5FC41F288380746236A9A07AFD4FDF794
:105690009DFCC01B4045F7D9DCE700BF001002406D
:1056A0000070004000004242036A026A70B522F0B6
:1056B00001020262446882690D6822F073022A4383
:1056C0008D6823F002032B430A4DA8420BD1CD680D
:1056D00023F008032B4324F44074D1E905563543E5
:1056E00023F004032C43446082614A6842630362EE
:1056F00070BD00BF002C0140036A026A70B522F43D
:10570000807202624468C2690D6822F073022A4303
:105710008D6823F4007343EA05230B4DA8420DD195
:10572000CD6823F4006343EA052324F44054D1E90F
:105730000556354323F4806344EA05144460C2618E
:105740004A68C263036270BD002C0140036A026AAA
:1057500030B522F4805202624468C2690D6822F4B6
:10576000E64242EA05228D6823F4005343EA0533FA
:10577000064DA84202BF4D6924F4804444EA8514D2
:105780004460C2614A680264036230BD002C01407B
:1057900090F83D30012B1CD102230F4A80F83D3098
:1057A000036893420AD0B3F1804F07D0A2F5943238
:1057B000934203D002F58062934204D19A6802F0CA
:1057C0000702062A03D01A6842F001021A6000207C
:1057D00070470120704700BF002C014090F83D3019
:1057E000012B20D1022380F83D300368DA6842F0B3
:1057F0000102DA600D4A93420AD0B3F1804F07D01C
:10580000A2F59432934203D002F58062934204D110
:105810009A6802F00702062A03D01A6842F00102D1
:105820001A60002070470120704700BF002C014023
:1058300070477047704770477047036810B51A6922
:10584000044691070ED5DA6892070BD56FF0020275
:105850001A61012202779B699B0777D0FFF7EAFF65
:105860000023237723681A69500710D5DA68510797
:105870000DD56FF004021A61022222779B6920463F
:1058800013F4407F68D0FFF7D5FF00232377236808
:105890001A6912070FD5DA6810070CD56FF00802E5
:1058A0001A6104222277DB69204699075AD0FFF754
:1058B000C1FF0023237723681A69D20610D5DA685E
:1058C000D0060DD56FF010021A6108222277DB692D
:1058D000204613F4407F4BD0FFF7ACFF0023237723
:1058E00023681A69D10708D5DA68D20705D56FF0A1
:1058F000010220461A61FBF71FFF23681A69100690
:1059000008D5DA68110605D56FF0800220461A61C5
:1059100000F07DFA23681A69520608D5DA68500645
:1059200005D56FF0400220461A61FFF785FF236816
:105930001A69910622D5DA6892061FD56FF0200207
:105940002046BDE810401A6100F060BAFFF771FF11
:105950002046FFF770FF83E7FFF76BFF2046FFF756
:105960006AFF92E7FFF765FF2046FFF764FFA0E7B5
:10597000FFF75FFF2046FFF75EFFAFE710BD0000B7
:105980001A4A036890420AD0B0F1804F07D0A2F5BE
:105990009432904203D002F58062904215D14A6859
:1059A00023F070031343114A90420AD0B0F1804FA4
:1059B00007D0A2F59432904203D002F58062904263
:1059C00003D1CA6823F4407313434A6923F0800368
:1059D000134303608B68C3620B688362034B984276
:1059E00004BF0B690363012343617047002C01402E
:1059F00010B5044630B390F83D3003F0FF021BB9F8
:105A000080F83C20FDF7ACF90223206884F83D3093
:105A1000211DFFF7B5FF0123002084F8463084F8EC
:105A20003E3084F83F3084F8403084F8413084F8C8
:105A3000423084F8433084F8443084F8453084F8A8
:105A40003D3010BD0120FCE710B5044630B390F89E
:105A50003D3003F0FF021BB980F83C20FFF7E8FE61
:105A60000223206884F83D30211DFFF789FF0123C0
:105A7000002084F8463084F83E3084F83F3084F8C3
:105A8000403084F8413084F8423084F8433084F860
:105A9000443084F8453084F83D3010BD0120FCE7E7
:105AA000036A026A70B522F01002026244688269D9
:105AB0000D6822F4E64242EA05228D6823F02003B5
:105AC00043EA05130B4DA8420DD1CD6823F08003A6
:105AD00043EA051324F44064D1E90556354323F025
